:100000000A128A11EC2F7008FF3E83160313C200F8
:1000100071080318013EFF3EC300C401C50108007A
:1000200083120313A2000830F0000030F1007A08B8
:10003000A000A1012008F2002108F3000A128A158D
:10004000BE230A128A11700883120313A700A301AA
:10005000A401AB0181282B082207AA0040302A0204
:10006000031C3328342839280230A5000030A600AC
:100070003D280130A5000030A6002508A8002A0868
:10008000A9003F30A905AC01792828080A168A1171
:100090004A260A128A11831203132C0878070A16BB
:1000A0008A11FB250A128A118312031329080A16E2
:1000B0008A11F1250A128A118312031323087B0780
:1000C00084007C0803187C0AFF000A128A150020AD
:1000D0000A128A110A168A1112260A128A1101308E
:1000E00083120313A3070318A40A0030A4070130E6
:1000F000AC0727082C02031C7E287F2845280130E6
:10010000AB0779082B02031C862887282B280800B8
:10011000831203132208840083130008A400840AB6
:100120000008A5002508FF00240884000A128A158B
:1001300000200A128A11253A031D9F28A0285E2953
:1001400022088400013083138007840A0318800A80
:1001500083160313C001C101003083120313EC00A6
:10016000FF30EA00FF30EB00220884000008A800FE
:10017000840A00088403A9002908FF0028088400D5
:100180000A128A1500200A128A11753A031DC9281D
:10019000CA2853292308840083130008A4000230CE
:1001A0008007240884000008AA00840A0008AB0025
:1001B0000130A40024082807A6002908A500031878
:1001C000A50AA41BA5032508A70022088400260869
:1001D00080002708840A8000840346292030AE006E
:1001E0000130AE022E08A03E84000A30F00000303C
:1001F000F1002B08F3002A08F2000A168A11FB26E8
:100200000A128A117008303E831380000A30F00011
:100210000030F100831203132B08F3002A08F200C8
:100220000A168A1133270A128A11710883120313DE
:10023000AB007008AA002A082B04031920292129E1
:100240003F292E08031D25292629F0283F292E089D
:10025000A03E840083130008A400A5012408F00038
:100260002508F1002008F2002108F3000A128A157F
:10027000DB250A128A11013083120313AE072030E6
:100280002E06031D4429452927297F292908FF0017
:10029000280884000A128A1500200A128A11753A69
:1002A0000319EE2853298312031322088400013016
:1002B00083138007840A0318800A7F292208840098
:1002C00083130008A400840A0008A5002508FF0085
:1002D000240884000A128A1500200A128A11A60036
:1002E000A7012608F0002708F1002008F2002108E5
:1002F000F3000A128A15DB250A128A115329080015
:1003000083160313880140308600831203130610FE
:100310008610061186110612861686130A168A1191
:1003200075270A128A110A128A1510230A128A11D5
:100330000130F0000030F1000A128A1103200A1285
:100340008A1183120313061BA629A729A12982302B
:1003500083120313E400DD30E300E30BAD29E40B6B
:10036000AD2983120313061FB629B729B12982309C
:1003700083120313E400DD30E300E30BBD29E40B3B
:10038000BD2983120313E9011430A6000030A70031
:100390000A128A15F6240A128A11831203132108FD
:1003A000A9002008A8000A128A1565230A128A11DA
:1003B000831203132608013EE5001430A600003026
:1003C000A7000A128A15F6240A128A11831203134F
:1003D0002108A9002008A8000A128A1565230A121C
:1003E0008A11831203132608013EE600D030C400B0
:1003F0000730C5003230C6000030C7000A128A112B
:1004000095230A128A110A128A1510230A128A11D8
:1004100083120313C701C70A6508C80018300A12FF
:100420008A1587240A128A1183120313C701C70A87
:100430006608C80040300A128A1587240A128A11F9
:10044000013083120313E90714306902031C292ABF
:100450002A2AC4291430A6000030A7000A128A15DF
:10046000F6240A128A11831203132108A900200816
:10047000A8000A128A1565230A128A11831203132F
:100480002608013EE7001430A6000030A7000A123B
:100490008A15F6240A128A11831203132108A9006F
:1004A0002008A8000A128A1565230A128A118312ED
:1004B00003132608013EE8000A128A1510230A12C7
:1004C0008A1183120313C701C70A6708C8001830CE
:1004D0000A128A1587240A128A1183120313C7018C
:1004E000C70A6808C80040300A128A1587240A1211
:1004F0008A110A128A1182220A128A11A1290A1269
:100500008A11002883120313E201712B6208DC00B8
:1005100001300310DC0DFF3E031D892A03105C0D22
:10052000F23E840089300318013EFF000A128A154A
:1005300000200A128A11C4000A128A1500200A1229
:100540008A11C5006208DD0001300310DD0DFF3E99
:10055000031DA52A03105D0D023EF23E8400893082
:100560000318013EFF000A128A1500200A128A11A0
:10057000DE000A128A1500200A128A11DF005E08C6
:10058000F0005F08F100F201F30100300A128A1551
:1005900075260A128A11730883120313A7007208C2
:1005A000A6007108A5007008A4003F30A3006630C3
:1005B000A2006630A1006630A0000A128A11AA24A7
:1005C0000A128A11831203132308BD002208BC00FB
:1005D0002108BB002008BA000A128A1565250A12F4
:1005E0008A11831203133B08C7003A08C6000A1297
:1005F0008A1195230A128A11831203136208DC0000
:1006000001300310DC0DFF3E031D012B03105C0DB8
:10061000023EF23E840089300318013EFF000A12B8
:100620008A1500200A128A11DD000A128A1500209C
:100630000A128A11DE005D08F0005E08F100F20186
:10064000F30100300A128A1575260A128A117308FE
:1006500083120313A7007208A6007108A500700892
:10066000A4003D30A300CC30A200CC30A100CD309E
:10067000A0000A128A11AA240A128A1183120313F3
:100680002308BD002208BC002108BB002008BA00D6
:100690000A128A1565250A128A11831203133B0870
:1006A000E1003A08E0005F2B073083120313DD00FE
:1006B0007C30DC00DC0B5A2BDD0B5A2B00000130A8
:1006C00083120313E0020030031CE103E102600A1D
:1006D000031D6E2B610A031D6E2B6F2B542B0130F3
:1006E000E2076208DC0001300310DC0DFF3E031D51
:1006F000742B03105C0D023EF23E84008930031817
:10070000013EFF000A128A1500200A128A11DD003C
:100710000A128A1500200A128A11DE005D085E04A2
:10072000031D932B942B862A08008312031344087D
:100730004504031D9C2B9D2BBB2B8613AA2B073036
:1007400083120313C9007C30C800C80BA52BC90B4A
:10075000A52B0000013083120313C6020030031CD6
:10076000C703C702460A031DB92B470A031DB92B4D
:10077000BA2B9F2BA92C4408A0004508A100A20178
:10078000A3010030A7000F30A6004230A500403082
:10079000A4000A128A1521240A128A118312031353
:1007A0002308DB002208DA002108D9002008D8003D
:1007B0005B08A3005A08A2005908A1005808A0002D
:1007C0004608F0004708F100F201F3010030F7009D
:1007D0000030F6000330F500E830F4000A168A1104
:1007E000BA270A128A11730883120313A70072082A
:1007F000A6007108A5007008A4000A128A15212419
:100800000A128A11831203132308D3002208D2008C
:100810002108D1002008D0007F2C831203138617F3
:10082000D401D5011E2C142C152C0000013083128C
:100830000313D4070318D50A0030D5075808C80099
:100840005908C9005A08CA005B08CB0001300310E0
:10085000CB0CCA0CC90CC80CFF3E031D272C540836
:10086000CC005508CD00CE01CF014B084F02031D2F
:10087000432C4A084E02031D432C49084D02031D18
:10088000432C48084C02031C462C472C132C86137F
:10089000D601D701562C4C2C4D2C00000130831270
:1008A0000313D6070318D70A0030D7075808C80023
:1008B0005908C9005A08CA005B08CB000130031070
:1008C000CB0CCA0CC90CC80CFF3E031D5F2C56088C
:1008D000CC005708CD00CE01CF014B084F02031DBD
:1008E0007B2C4A084E02031D7B2C49084D02031D38
:1008F0007B2C48084C02031C7E2C7F2C4B2C013097
:10090000C8000030C9000030CA000030CB004808E1
:10091000D0024908031C490F8E2C8F2CD1024A08A3
:10092000031C4A0F942C952CD2024B08031C4B0F2E
:100930009A2C9B2CD302500A031DA82C510A031D8C
:10094000A82C520A031DA82C530A031DA82CA92C5D
:100950000D2C0800831203132308AD008030AD0571
:100960002308A8002807B300A21FB72CB82CB92C65
:10097000331433080319BD2CBE2CCD2C330A031DB0
:10098000C22CC32CCB2C0030A3000030A2000030BE
:10099000A1000030A000A217D52C0030A300003029
:1009A000A2000030A1000030A00027088039AD0669
:1009B0002708A8002807B200A61FDF2CE02CE12C96
:1009C000321432080319E52CE62CF52C320A031DEB
:1009D000EA2CEB2CF32C0030A7000030A6000030EE
:1009E000A5000030A400A617FD2C0030A7000030A1
:1009F000A6000030A5000030A40032080319012D24
:100A0000022D072D3308031D062D072D102D003054
:100A1000A3000030A2000030A1000030A000EB2FA6
:100A20002008F00026080A168A11D4260A128A1114
:100A3000710883120313B9007008B8003808A800C1
:100A4000A901AA01AB012B08B1002A08B0002908AE
:100A5000AF002808AE003908A800A901AA01AB011F
:100A60002B08B7002A08B6002908B5002808B400EA
:100A70002108F00025080A168A11D4260A128A11C4
:100A8000710883120313B9007008B8003808A80071
:100A9000A901AA01AB012808AE0729080311031810
:100AA000013E0319542DAF072A0803110318013E14
:100AB00003195B2DB0072B0803110318013E03191E
:100AC000622DB1073908A800A901AA01AB012808C5
:100AD000B407290803110318013E0319702DB50747
:100AE0002A0803110318013E0319772DB6072B08B6
:100AF00003110318013E03197E2DB7072208F000E9
:100B000024080A168A11D4260A128A11710883123F
:100B10000313B9007008B8003808A800A901AA0199
:100B2000AB012808AE07290803110318013E031979
:100B30009A2DAF072A0803110318013E0319A12DAE
:100B4000B0072B0803110318013E0319A82DB107A4
:100B50003908A800A901AA01AB012808B40729088F
:100B600003110318013E0319B62DB5072A08031116
:100B70000318013E0319BD2DB6072B0803110318F6
:100B8000013E0319C42DB7070830A8000310AE0DAD
:100B9000AF0DB00DB10DA80BC62D2108F000240833
:100BA0000A168A11D4260A128A11710883120313B5
:100BB000B9007008B8003808A8003908A900AA01CF
:100BC000AB012808AE07290803110318013E0319D9
:100BD000EA2DAF072A0803110318013E0319F12D6E
:100BE000B0072B0803110318013E0319F82DB107B4
:100BF0002008F00025080A168A11D4260A128A1144
:100C0000710883120313B9007008B8003808A800EF
:100C10003908A900AA01AB012808AE072908031169
:100C20000318013E0319152EAF072A0803110318F4
:100C3000013E03191C2EB0072B0803110318013EB7
:100C40000319232EB1070830A8000310AE0DAF0D15
:100C5000B00DB10DA80B252E2008F00024080A16AF
:100C60008A11D4260A128A11710883120313B9005B
:100C70007008B8003808A8003908A900AA01AB011B
:100C80002808AE07290803110318013E0319492E4D
:100C9000AF072A0803110318013E0319502EB007AD
:100CA0002B0803110318013E0319572EB107210821
:100CB000F00026080A168A11D4260A128A11710831
:100CC00083120313B9007008B8003808A800390867
:100CD000A900AA01AB012808B407290803110318C9
:100CE000013E0319742EB5072A0803110318013EAB
:100CF00003197B2EB6072B0803110318013E0319B5
:100D0000822EB7072208F00025080A168A11D42679
:100D10000A128A11710883120313B9007008B8000F
:100D20003808A8003908A900AA01AB012808B407AF
:100D3000290803110318013E03199F2EB5072A083D
:100D400003110318013E0319A62EB6072B08031141
:100D50000318013E0319AD2EB7072208F00026083C
:100D60000A168A11D4260A128A11710883120313F3
:100D7000B9007008B8003808A8003908A900AA010D
:100D8000AB0108300310A80DA90DAA0DAB0DFF3E55
:100D9000031DC22E2808B407290803110318013EB9
:100DA0000319D32EB5072A0803110318013E0319AE
:100DB000DA2EB6072B0803110318013E0319E12EA2
:100DC000B7072E08A8002F08A9003008AA0031088C
:100DD000AB0018300310AB0CAA0CA90CA80CFF3EFA
:100DE000031DEA2E2808B407290803110318013E41
:100DF0000319FB2EB5072A0803110318013E031936
:100E0000022FB6072B0803110318013E0319092FFF
:100E1000B7070830A8000310AE0DAF0DB00DB10D2F
:100E2000A80B0B2F33083207A800A901A90D280829
:100E3000823EB80029080318013EFF3EB9003D2F4D
:100E40000130A8000310B40DB50DB60DB70DA80BF9
:100E5000222FB11F2C2F2D2F2E2F34140130A8003C
:100E60000310AE0DAF0DB00DB10DA80B302FFF303C
:100E7000B8070318B90AFF30B907B61F402F412F32
:100E8000202FB201B11F452F462F622FFF302E05B4
:100E9000A800FF302F05A900FF303005AA007F30E1
:100EA0003105AB002B082A04290428040319592F03
:100EB0005A2F5D2F0130B200622F341C602F612F3A
:100EC000622F5A2F32080319662F672F982F01308F
:100ED000B407003003180130B507003003180130A3
:100EE000B607003003180130B707371C782F792F69
:100EF000982F3408A8003508A9003608AA0037083A
:100F0000AB000130AC002B0DAB0CAA0CA90CA80C4B
:100F1000AC0B832F2B08B7002A08B6002908B500B0
:100F20002808B4000130B8070318B90A0030B9071F
:100F30003908803AFF0080307F02031DA12FFF3067
:100F40003802031CA42FA52FB02F7F308312031368
:100F5000B7008030B6000030B5000030B400E12F9B
:100F6000831203133908803AFF0080307F02031D8B
:100F7000BB2F013038020318BE2FBF2FCB2F0030FC
:100F800083120313B7000030B6000030B500003004
:100F9000B400AD01E12F831203133808B300FF3012
:100FA000B405FF30B5057F30B6050030B705331CFA
:100FB000DA2FDB2FDC2FB6173308A8000310280C1C
:100FC000B7002D08B7043708A3003608A20035087B
:100FD000A1003408A000080083120313EA01EB010A
:100FE000EC01ED01EE018313A0308400C6300A1637
:100FF0008A11E9250A128A1183010A128A118029AD
:10100000FF1B0A2883137F1883170008840A03191B
:10101000FF0A08007F087F398A000408840A031940
:10102000FF0A8200003400340034003400340034FD
:1010300000345F34003400340034073400340734A3
:10104000003414347F3414347F34143424342A3478
:101050007F342A3412342334133408346434623431
:101060003634493455342234503400340534033492
:101070000034003400341C34223441340034003451
:10108000413422341C340034143408343E340834DF
:101090001434083408343E340834083400345034EE
:1010A0003034003400340834083408340834083448
:1010B0000034603460340034003420341034083498
:1010C000043402343E345134493445343E3400341F
:1010D00042347F3440340034423461345134493432
:1010E00046342134413445344B34313418341434CB
:1010F00012347F3410342734453445344534393480
:101100003C344A344934493430340134713409347C
:1011100005340334363449344934493436340634DA
:101120004934493429341E340034363436340034DA
:101130000034003456343634003400340834143467
:101140002234413400341434143414341434143438
:10115000003441342234143408340234013451341C
:101160000934063432344934793441343E347E34DF
:101170001134113411347E347F34493449344934C4
:1011800036343E3441344134413422347F344134A6
:10119000413422341C347F34493449344934413495
:1011A0007F3409340934093401343E34413449343C
:1011B00049347A347F340834083408347F340034B6
:1011C00041347F34413400342034403441343F349E
:1011D00001347F3408341434223441347F344034B1
:1011E0004034403440347F340234043402347F3499
:1011F0007F340434083410347F343E344134413475
:1012000041343E347F3409340934093406343E34E1
:101210004134513421345E347F3409341934293453
:101220004634463449344934493431340134013484
:101230007F34013401343F344034403440343F344F
:101240001F342034403420341F347F342034103491
:1012500020347F3463341434083414346334033456
:10126000043478340434033461345134493445341B
:10127000433400347F344134413400340234043484
:101280000834103420340034413441347F34003485
:1012900004340234013402340434403440344034E1
:1012A00040344034003401340234043400342034F7
:1012B00054345434543478347F34483444344434CB
:1012C00038343834443444344434203438344434A6
:1012D000443448347F343834543454345434183417
:1012E00008347E340934013402340834543454341C
:1012F00054343C347F3408340434043478340034B7
:1013000044347D34403400342034403444343D345B
:1013100000347F34103428344434003400344134F1
:101320007F34403400347C3404341834043478344A
:101330007C34083404340434783438344434443449
:10134000443438347C3414341434143408340834B9
:101350001434143414347C347C34083404340434A9
:1013600008344834543454345434203404343F342E
:101370004434403420343C344034403420347C34D1
:101380001C342034403420341C343C344034303459
:1013900040343C34443428341034283444340C343D
:1013A0005034503450343C344434643454344C3429
:1013B00044340034083436344134003400340034CA
:1013C0007F3400340034003441343634083400347F
:1013D0000234013402340434023400340034003462
:1013E000003400344A3401340E3402344A340134B7
:1013F0000E3402345D3401340E3402348834013446
:101400000E340234883401340E3402345D34013435
:101410000E3402344A3401340E340234263401349A
:101420000E340234063401340E34023406340134EE
:101430000E340234263401340E3402344A3401347A
:101440000E3402344A340134153403342634013462
:1014500007340134263401341C340434003400349D
:10146000003400340034FC34FF343F3400340034A2
:10147000FE34673477340034003486340F347034EB
:101480000034003407343E34D034003400340734A0
:10149000F8349834003480340334C0349B3401343D
:1014A0008034023400341E340134C0340334003438
:1014B0001F3403344034013480343B34023460340C
:1014C0000134E03468340634A03401347834C8344C
:1014D0000434B03401341C3488340D349034013475
:1014E0000E3408340B3498348134013408341B34FE
:1014F0008834E0340134083416348C3470340034C9
:1015000008343C3484343834003408343834C63435
:101510000634003408347034C634073400340834D8
:101520006034FF34013400340834C034FF340134F3
:1015300000340834E034C2340334003408346034F6
:10154000C634063400340834703484341C34003417
:10155000083438348C347034003408343C348834E3
:10156000E0340034083416349834813401340834BB
:101570001B34903401340F3408340B34B03401344C
:101580001C3488340D34203401343834C8340434E5
:1015900060340134E034683406344034013480343B
:1015A0003B340234C034033400341F3403348034F9
:1015B000023400341E3401348034033440348F3418
:1015C000013400340734F8349834003400340734DC
:1015D0003E34D0340034003486340F345034003478
:1015E0000034FE34B7347D3400340034FC34FF342E
:0E15F0003F3400343934083425347534003467
:1016000008008312031306150330F000F00B062BBD
:101610008312031306110330F000F00B0D2B0800AA
:1016200001300A168A114A260A128A15F401740832
:101630000A168A11FB250A128A1500300A168A1129
:10164000F1250A128A15F30100300A168A111226B2
:101650000A128A150130F30740307302031C312B44
:10166000322B242B0130F40708307402031C392B71
:101670003A2B172B02300A168A114A260A128A15AB
:10168000F40174080A168A11FB250A128A15003023
:101690000A168A11F1250A128A15F30100300A167A
:1016A0008A1112260A128A150130F307403073029C
:1016B000031C5B2B5C2B4E2B0130F40708307402AB
:1016C000031C632B642B412B080083120313AB0113
:1016D000A91F6B2B6C2B732BA809A909A80A031946
:1016E000A90A0130AB00A71F762B772B7C2BA6090C
:1016F000A709A60A0319A70A260827040319812B9C
:10170000822BAF2B0130AA008E2B01300310A60DC7
:10171000A70DFF3E031D862B0130AA07A71F912BA3
:10172000922B852B27082902031D982B26082802B7
:10173000031C9B2B9C2BA22B2608A8022708031C0A
:10174000A903A90201300310A70CA60CFF3E031D3C
:10175000A32B0130AA02031DAE2BAF2B922B2B081B
:101760000319B32BB42BB92BA809A909A80A03198B
:10177000A90A2908A7002808A6000800F501F11FFA
:10178000C22BC32BCA2BF009F109F00A0319F10A85
:101790000130F500F31FCD2BCE2BD52BF209F30929
:1017A000F20A0319F30A0130F506F601F701700891
:1017B00071040319DC2BDD2B122C0130F400E92B12
:1017C00001300310F00DF10DFF3E031DE12B013040
:1017D000F407F11FEC2BED2BE02B01300310F60D7D
:1017E000F70DFF3E031DEE2B71087302031DFA2B4C
:1017F00070087202031CFD2BFE2B052C7008F202F0
:101800007108031CF303F302761401300310F10C8A
:10181000F00CFF3E031D062C0130F402031D112CB9
:10182000122CED2B75080319162C172C1C2CF609FD
:10183000F709F60A0319F70A7708F1007608F000AD
:101840000800003083120313AB000030AA00003000
:10185000A9000030A8002308220421042004031951
:10186000322C332C7E2C0130AC00412C0130FD0099
:101870000310A00DA10DA20DA30DFD0B382C0130FE
:10188000AC07A31F442C452C362C0130FD0003105F
:10189000A80DA90DAA0DAB0DFD0B472C230827029F
:1018A000031D5C2C22082602031D5C2C2108250246
:1018B000031D5C2C20082402031C5F2C602C6F2C61
:1018C0002008A4022108031C210FA5022208031CE2
:1018D000220FA6022308031C230FA702281401309D
:1018E0000310A30CA20CA10CA00CFF3E031D702C36
:1018F0000130AC02031D7D2C7E2C452C2B08A3004F
:101900002A08A2002908A1002808A00008008312C4
:101910000313D4004708F8002830F9002830FA00F3
:101920003230FB008A30FC0054080A128A11102061
:101930000A128A154B3083120313B600FC30B7002D
:101940008A30B8004808C900CA014908B9004A08E5
:10195000BA000A168A1188260A128A1583120313FE
:10196000D2014B30D300B82C0130D2070130D3075D
:101970005308840083130008031DBF2CC02CB42C13
:101980000630F00052080A168A111F260A128A151C
:1019900083120313CF000230F0000030F1004F0833
:1019A000C900CA014908F2004A08F3000A128A1560
:1019B000BE230A128A157008831203135402143EC0
:1019C000D0004708023ED1005108F00050080A1626
:1019D0008A11E1250A128A154B3083120313AB00DA
:1019E0000A168A1132260A128A150800013083125B
:1019F0000313A2000030A3000030A4000030A500B3
:101A0000831603134508F3004408F2004308F1006D
:101A10004208F0004C30F7009530F6007F30F500BA
:101A20002D30F4000A168A11BA270A128A15700896
:101A300083120313A20771080318710F202D212DA3
:101A4000A30772080318720F262D272DA407730809
:101A50000318730AA507250883160313C50083120C
:101A60000313240883160313C400831203132308EB
:101A700083160313C3008312031322088316031370
:101A8000C200420883120313A20083160313430803
:101A900083120313A3008316031344088312031352
:101AA000A40083160313450883120313A500113005
:101AB0000310A50CA40CA30CA20CFF3E031D582D73
:101AC0002308A1002208A0000800031083120313BA
:101AD0003C0D3D0DC3004308031D6F2D702D792D66
:101AE0000030BD000030BC000030BB000030BA0048
:101AF000DA2D3A08BE003B08BF003C08C0003D0894
:101B0000C1001F300310C10CC00CBF0CBE0CFF3E47
:101B1000031D822D3E08C200BC17FF30BA05FF30FE
:101B2000BB05FF30BC050030BD059630C302C31FA6
:101B30009A2D9B2DB32D4308803A973E0318A12D73
:101B4000A22DA32D702D01300310BD0CBC0CBB0CBD
:101B5000BA0CFF3E031DA42D0130C307031DB12D98
:101B6000B22DA32DCA2D20304302031CB82DB92D50
:101B7000C52D702D0130BE000310BA0DBB0DBC0D7C
:101B8000BD0DBE0BBC2D0130C3024308031DC92D82
:101B9000CA2DBA2D42080319CE2DCF2DDA2DBA0940
:101BA000BB09BC09BD09BA0A0319BB0A0319BC0A5F
:101BB0000319BD0A0800720873040319E02DE12D12
:101BC000E72D72087304031DE62DE72DEE2D700836
:101BD0000A128A1500230A128A15742E7208093E09
:101BE000F40073080318013E003EF50074088400F9
:101BF0008317751C83130008F600840A0008F70099
:101C0000760877040319052E062E382E7208093E31
:101C1000F40073080318013E003EF50074088400C8
:101C20008317751C83130008F600840A0008F70068
:101C30007208023EF80073080318013E003EF900E6
:101C4000780884008317791C83130008FA00840A3B
:101C50000008FB007B08803AFC007708803A7C0291
:101C6000031D342E76087A020318372E382E742E70
:101C7000720884008317731C83130008F400840A1D
:101C80000008F5007208023EF60073080318013ED2
:101C9000003EF700760884008317771C8313000842
:101CA0007407F9007508F8000318F80A801F592E08
:101CB000F8037808FA007908840083177A1C8313E4
:101CC000700880007208023EF40073080318013E99
:101CD000003EF500740884008317751C83130130DF
:101CE0008007840A0318800A0800F800780803199E
:101CF0007A2E7B2E8F2EF31F7E2E7F2E8F2E700935
:101D0000FA007109FB007209FC007309FD00FA0A70
:101D10000319FB0A0319FC0A0319FD0A972E73081D
:101D2000FD007208FC007108FB007008FA007308DF
:101D3000720471047004031D9E2E9F2EA82E003085
:101D4000F3000030F2000030F1000030F000282FE6
:101D50009630F900B62E0130F90701300310FD0C62
:101D6000FC0CFB0CFA0CFF3E031DAE2EFE307D0575
:101D7000031DBB2EBC2EAB2ED62E0130F907013031
:101D8000FA07003003180130FB0700300318013058
:101D9000FC07003003180130FD0701300310FD0C73
:101DA000FC0CFB0CFA0CFF3E031DCE2EFF307D0514
:101DB000031DDB2EDC2EBD2EE82E0130F902013092
:101DC000F4000310FA0DFB0DFC0DFD0DF40BE12EDC
:101DD000FC1BEB2EEC2EF22E023079020318F12EB2
:101DE000F22EDD2E7918F52EF62EFE2EFF30FA0596
:101DF000FF30FB057F30FC05FF30FD050310F90CBB
:101E00007908F400F501F601F70118300310F40D1C
:101E1000F50DF60DF70DFF3E031D062F7408FA04AD
:101E20007508FB047608FC047708FD04780803199C
:101E30001A2F1B2F202FF31F1E2F1F2F202FFD17B0
:101E40007D08F3007C08F2007B08F1007A08F000BE
:101E5000080083120313A90020302902031C312F2C
:101E6000322F382F7F302902031C372F382F3A2F7B
:101E70002030A9002908E03EA400AA0140306E02EB
:101E8000031C432F442F492F0230A0000030A10033
:101E90004D2F0130A0000030A1002008A5006E08E1
:101EA000A7003F30A70525080A168A114A260A12FC
:101EB0008A15831203136D080A168A11FB250A126C
:101EC0008A158312031327080A168A11F1250A12AC
:101ED0008A15831203132A08F600F7012408F80074
:101EE000F9017808F0007908F1000530F2000030BF
:101EF000F3000A168A1163260A128A151230FA00B4
:101F00008830FB0070087A07FC0071080318710A1A
:101F10007B07FD0076087C07840077080318770AA2
:101F20007D0783120313FF000A128A1500200A128C
:101F30008A150A168A1112260A128A15013083128E
:101F40000313EE0780306E02031CA72FA82FB22FB9
:101F5000EE010130ED0708306D02031CB02FB12FE8
:101F6000B22FED010130AA0705302A02031CB92F58
:101F7000BA2F3E2F40306E02031CBF2FC02FC52F3B
:101F80000230A2000030A300C92F0130A2000030AF
:101F9000A3002208A6006E08A8003F30A805260866
:101FA0000A168A114A260A128A15831203136D082B
:101FB0000A168A11FB250A128A15831203132808B0
:101FC0000A168A11F1250A128A1500300A168A119A
:101FD00012260A128A15013083120313EE0780308D
:101FE0006E02031CF42FF52FFF2FEE010130ED07D9
:101FF00008306D02031CFD2FFE2FFF2FED0108009E
:102BA6003E300A168A1105260A168A1108003F3099
:102BB6000A168A1105260A168A110800F1007108FC
:102BC60083120313EE007008ED0008006400800114
:102BD600840A0406031900340406EA2DF20072087A
:102BE6003F3940380A168A1105260A168A11080046
:102BF600F20072080739B8380A168A1105260A162D
:102C06008A110800F100831203130610861071085A
:102C160088000A128A1501230A168A110800F10093
:102C26008312031306148610710888000A128A1587
:102C360001230A168A110800F200F101721C242EE3
:102C4600252E272E7008F1070310F00D0310F20C45
:102C56007208031D2F2E302E212E710808003F2EDC
:102C66002B08840000080A128A1529270A168A11D9
:102C7600013083120313AB07831203132B0884005E
:102C860083130008031D482E492E332E0800F0003A
:102C9600700303194F2E532E831203138615562ED7
:102CA6008312031386110230700603195B2E5F2E02
:102CB600831203130616622E8312031306120800EC
:102CC600F401F501701C682E692E6F2E7208F40748
:102CD6000318F50A7308F50701300310F20DF30D1A
:102CE600FF3E031D702E01300310F10CF00CFF3E69
:102CF600031D772E70087104031D822E832E652E08
:102D06007508F1007408F0000800393083120313C7
:102D1600BB003608BC000030BD00BE01BF01C501C6
:102D2600C6013C30AF000030B0003708B1003808AB
:102D3600B2003B30B3000A168A11AD260A168A1174
:102D4600831203133E083607FD007D0884008313B3
:102D560080010800831203133108B4003208B5005D
:102D6600C12E2F08A0003008A1003430A20033087D
:102D7600A3000A128A1188200A168A1183120313E5
:102D86003508FF00340884000A128A1500200A1646
:102D96008A11003A031DD02ED12EB42EAF01B001F8
:102DA6000800F800F401F5017008F200F30172085A
:102DB600F6007308F700781CE12EE22EE82E76085E
:102DC600F4070318F50A7708F50701300310F60D26
:102DD600F70DFF3E031DE92E0310F80C7808031DBE
:102DE600F52EF62EDE2E7508F1007408F0000800A8
:102DF600700871040319002F012F2E2F0130F400E3
:102E06000D2F01300310F00DF10DFF3E031D052FB0
:102E16000130F407F11F102F112F042F71087302D0
:102E2600031D172F70087202031C1A2F1B2F212F48
:102E36007008F2027108031CF303F3020130031059
:102E4600F10CF00CFF3E031D222F0130F402031D8E
:102E56002D2F2E2F112F7308F1007208F000080095
:102E6600F401F5017008710403193A2F3B2F702FF6
:102E76000130F600472F01300310F00DF10DFF3E33
:102E8600031D3F2F0130F607F11F4A2F4B2F3E2F10
:102E960001300310F40DF50DFF3E031D4C2F710894
:102EA6007302031D582F70087202031C5B2F5C2FE0
:102EB600632F7008F2027108031CF303F302741403
:102EC60001300310F10CF00CFF3E031D642F01309E
:102ED600F602031D6F2F702F4B2F7508F100740833
:102EE600F00008008312031386124130F300EE301F
:102EF600F200F20B7C2FF30B7C2F000083120313DE
:102F060086164130F300EE30F200F20B882FF30BF9
:102F1600882F000001300A168A114A260A168A11DD
:102F26000A168A11D3250A168A1102300A168A1140
:102F36004A260A168A110A168A11D3250A168A11F2
:102F460001300A168A114A260A168A110A168A11A9
:102F5600DA250A168A1102300A168A114A260A1634
:102F66008A110A168A11DA250A168A110800003013
:102F7600FC000030FB000030FA000030F900701C45
:102F8600C52FC62FDD2F7408F9077508031103181E
:102F9600013E0319CF2FFA07760803110318013EE5
:102FA6000319D62FFB07770803110318013E0319EF
:102FB600DD2FFC070130F8000310F40DF50DF60DBA
:102FC600F70DF80BDF2F01300310F30CF20CF10CA8
:102FD600F00CFF3E031DE72F7308720471047004A2
:102FE600031DF62FF72FC22F7C08F3007B08F20093
:0A2FF6007A08F1007908F0000800E5
:02400E00323F3F
:00000001FF
